{
    "contractName": "MachineStationFactory",
    "abi": [
        {
            "inputs": [
                {
                    "internalType": "address",
                    "name": "admin",
                    "type": "address"
                },
                {
                    "internalType": "address",
                    "name": "stationManager",
                    "type": "address"
                }
            ],
            "stateMutability": "nonpayable",
            "type": "constructor"
        },
        {
            "inputs": [],
            "name": "AccessControlBadConfirmation",
            "type": "error"
        },
        {
            "inputs": [
                {
                    "internalType": "address",
                    "name": "account",
                    "type": "address"
                },
                {
                    "internalType": "bytes32",
                    "name": "neededRole",
                    "type": "bytes32"
                }
            ],
            "name": "AccessControlUnauthorizedAccount",
            "type": "error"
        },
        {
            "inputs": [],
            "name": "ECDSAInvalidSignature",
            "type": "error"
        },
        {
            "inputs": [
                {
                    "internalType": "uint256",
                    "name": "length",
                    "type": "uint256"
                }
            ],
            "name": "ECDSAInvalidSignatureLength",
            "type": "error"
        },
        {
            "inputs": [
                {
                    "internalType": "bytes32",
                    "name": "s",
                    "type": "bytes32"
                }
            ],
            "name": "ECDSAInvalidSignatureS",
            "type": "error"
        },
        {
            "inputs": [],
            "name": "InvalidMachineAddressTargetsDataLength",
            "type": "error"
        },
        {
            "inputs": [
                {
                    "internalType": "bytes32",
                    "name": "messageHash",
                    "type": "bytes32"
                },
                {
                    "internalType": "uint256",
                    "name": "nonce",
                    "type": "uint256"
                }
            ],
            "name": "InvalidOwnerSignature",
            "type": "error"
        },
        {
            "inputs": [],
            "name": "InvalidShortString",
            "type": "error"
        },
        {
            "inputs": [
                {
                    "internalType": "uint256",
                    "name": "nonce",
                    "type": "uint256"
                }
            ],
            "name": "NonceAlreadyUsed",
            "type": "error"
        },
        {
            "inputs": [
                {
                    "internalType": "address",
                    "name": "token",
                    "type": "address"
                }
            ],
            "name": "SafeERC20FailedOperation",
            "type": "error"
        },
        {
            "inputs": [
                {
                    "internalType": "string",
                    "name": "str",
                    "type": "string"
                }
            ],
            "name": "StringTooLong",
            "type": "error"
        },
        {
            "inputs": [
                {
                    "internalType": "address",
                    "name": "target",
                    "type": "address"
                },
                {
                    "internalType": "bytes",
                    "name": "data",
                    "type": "bytes"
                }
            ],
            "name": "TargetCallFailed",
            "type": "error"
        },
        {
            "inputs": [],
            "name": "ZeroAddress",
            "type": "error"
        },
        {
            "anonymous": false,
            "inputs": [
                {
                    "indexed": true,
                    "internalType": "address",
                    "name": "machineAddress",
                    "type": "address"
                },
                {
                    "indexed": false,
                    "internalType": "uint256",
                    "name": "index",
                    "type": "uint256"
                }
            ],
            "name": "BatchMachineTransactionFailed",
            "type": "event"
        },
        {
            "anonymous": false,
            "inputs": [],
            "name": "EIP712DomainChanged",
            "type": "event"
        },
        {
            "anonymous": false,
            "inputs": [
                {
                    "indexed": true,
                    "internalType": "address",
                    "name": "deployedAddress",
                    "type": "address"
                }
            ],
            "name": "MachineSmartAccountDeployed",
            "type": "event"
        },
        {
            "anonymous": false,
            "inputs": [
                {
                    "indexed": true,
                    "internalType": "address",
                    "name": "oldMachineStation",
                    "type": "address"
                },
                {
                    "indexed": true,
                    "internalType": "address",
                    "name": "newMachineStation",
                    "type": "address"
                },
                {
                    "indexed": false,
                    "internalType": "uint256",
                    "name": "amount",
                    "type": "uint256"
                },
                {
                    "indexed": false,
                    "internalType": "uint256",
                    "name": "nonce",
                    "type": "uint256"
                }
            ],
            "name": "MachineStationBalanceTransferred",
            "type": "event"
        },
        {
            "anonymous": false,
            "inputs": [],
            "name": "OnFailbackCall",
            "type": "event"
        },
        {
            "anonymous": false,
            "inputs": [],
            "name": "OnReceivedCall",
            "type": "event"
        },
        {
            "anonymous": false,
            "inputs": [
                {
                    "indexed": true,
                    "internalType": "bytes32",
                    "name": "role",
                    "type": "bytes32"
                },
                {
                    "indexed": true,
                    "internalType": "bytes32",
                    "name": "previousAdminRole",
                    "type": "bytes32"
                },
                {
                    "indexed": true,
                    "internalType": "bytes32",
                    "name": "newAdminRole",
                    "type": "bytes32"
                }
            ],
            "name": "RoleAdminChanged",
            "type": "event"
        },
        {
            "anonymous": false,
            "inputs": [
                {
                    "indexed": true,
                    "internalType": "bytes32",
                    "name": "role",
                    "type": "bytes32"
                },
                {
                    "indexed": true,
                    "internalType": "address",
                    "name": "account",
                    "type": "address"
                },
                {
                    "indexed": true,
                    "internalType": "address",
                    "name": "sender",
                    "type": "address"
                }
            ],
            "name": "RoleGranted",
            "type": "event"
        },
        {
            "anonymous": false,
            "inputs": [
                {
                    "indexed": true,
                    "internalType": "bytes32",
                    "name": "role",
                    "type": "bytes32"
                },
                {
                    "indexed": true,
                    "internalType": "address",
                    "name": "account",
                    "type": "address"
                },
                {
                    "indexed": true,
                    "internalType": "address",
                    "name": "sender",
                    "type": "address"
                }
            ],
            "name": "RoleRevoked",
            "type": "event"
        },
        {
            "anonymous": false,
            "inputs": [
                {
                    "indexed": true,
                    "internalType": "address",
                    "name": "target",
                    "type": "address"
                },
                {
                    "indexed": false,
                    "internalType": "bytes",
                    "name": "data",
                    "type": "bytes"
                },
                {
                    "indexed": false,
                    "internalType": "uint256",
                    "name": "nonce",
                    "type": "uint256"
                },
                {
                    "indexed": true,
                    "internalType": "address",
                    "name": "executor",
                    "type": "address"
                }
            ],
            "name": "TransactionExecuted",
            "type": "event"
        },
        {
            "stateMutability": "payable",
            "type": "fallback"
        },
        {
            "inputs": [],
            "name": "DEFAULT_ADMIN_ROLE",
            "outputs": [
                {
                    "internalType": "bytes32",
                    "name": "",
                    "type": "bytes32"
                }
            ],
            "stateMutability": "view",
            "type": "function"
        },
        {
            "inputs": [],
            "name": "REQUIRED_STORAGE_DEPOSIT_FEE_ROLE",
            "outputs": [
                {
                    "internalType": "bytes32",
                    "name": "",
                    "type": "bytes32"
                }
            ],
            "stateMutability": "view",
            "type": "function"
        },
        {
            "inputs": [],
            "name": "STATION_MANAGER_ROLE",
            "outputs": [
                {
                    "internalType": "bytes32",
                    "name": "",
                    "type": "bytes32"
                }
            ],
            "stateMutability": "view",
            "type": "function"
        },
        {
            "inputs": [
                {
                    "internalType": "address",
                    "name": "machineOwner",
                    "type": "address"
                },
                {
                    "internalType": "uint256",
                    "name": "nonce",
                    "type": "uint256"
                },
                {
                    "internalType": "bytes",
                    "name": "signature",
                    "type": "bytes"
                }
            ],
            "name": "deployMachineSmartAccount",
            "outputs": [
                {
                    "internalType": "address",
                    "name": "",
                    "type": "address"
                }
            ],
            "stateMutability": "nonpayable",
            "type": "function"
        },
        {
            "inputs": [],
            "name": "eip712Domain",
            "outputs": [
                {
                    "internalType": "bytes1",
                    "name": "fields",
                    "type": "bytes1"
                },
                {
                    "internalType": "string",
                    "name": "name",
                    "type": "string"
                },
                {
                    "internalType": "string",
                    "name": "version",
                    "type": "string"
                },
                {
                    "internalType": "uint256",
                    "name": "chainId",
                    "type": "uint256"
                },
                {
                    "internalType": "address",
                    "name": "verifyingContract",
                    "type": "address"
                },
                {
                    "internalType": "bytes32",
                    "name": "salt",
                    "type": "bytes32"
                },
                {
                    "internalType": "uint256[]",
                    "name": "extensions",
                    "type": "uint256[]"
                }
            ],
            "stateMutability": "view",
            "type": "function"
        },
        {
            "inputs": [
                {
                    "internalType": "address[]",
                    "name": "machineAddresses",
                    "type": "address[]"
                },
                {
                    "internalType": "address[]",
                    "name": "targets",
                    "type": "address[]"
                },
                {
                    "internalType": "bytes[]",
                    "name": "data",
                    "type": "bytes[]"
                },
                {
                    "internalType": "uint256",
                    "name": "nonce",
                    "type": "uint256"
                },
                {
                    "internalType": "uint256[]",
                    "name": "machineNonces",
                    "type": "uint256[]"
                },
                {
                    "internalType": "bytes",
                    "name": "signature",
                    "type": "bytes"
                },
                {
                    "internalType": "bytes[]",
                    "name": "machineOwnerSignatures",
                    "type": "bytes[]"
                }
            ],
            "name": "executeMachineBatchTransactions",
            "outputs": [],
            "stateMutability": "nonpayable",
            "type": "function"
        },
        {
            "inputs": [
                {
                    "internalType": "address",
                    "name": "machineAddress",
                    "type": "address"
                },
                {
                    "internalType": "address",
                    "name": "target",
                    "type": "address"
                },
                {
                    "internalType": "bytes",
                    "name": "data",
                    "type": "bytes"
                },
                {
                    "internalType": "uint256",
                    "name": "nonce",
                    "type": "uint256"
                },
                {
                    "internalType": "bytes",
                    "name": "signature",
                    "type": "bytes"
                },
                {
                    "internalType": "bytes",
                    "name": "machineOwnerSignature",
                    "type": "bytes"
                }
            ],
            "name": "executeMachineTransaction",
            "outputs": [],
            "stateMutability": "nonpayable",
            "type": "function"
        },
        {
            "inputs": [
                {
                    "internalType": "address",
                    "name": "machineAddress",
                    "type": "address"
                },
                {
                    "internalType": "address",
                    "name": "recipientAddress",
                    "type": "address"
                },
                {
                    "internalType": "uint256",
                    "name": "nonce",
                    "type": "uint256"
                },
                {
                    "internalType": "bytes",
                    "name": "signature",
                    "type": "bytes"
                },
                {
                    "internalType": "bytes",
                    "name": "machineOwnerSignature",
                    "type": "bytes"
                }
            ],
            "name": "executeMachineTransferBalance",
            "outputs": [],
            "stateMutability": "nonpayable",
            "type": "function"
        },
        {
            "inputs": [
                {
                    "internalType": "address",
                    "name": "target",
                    "type": "address"
                },
                {
                    "internalType": "bytes",
                    "name": "data",
                    "type": "bytes"
                },
                {
                    "internalType": "uint256",
                    "name": "nonce",
                    "type": "uint256"
                },
                {
                    "internalType": "bytes",
                    "name": "signature",
                    "type": "bytes"
                }
            ],
            "name": "executeTransaction",
            "outputs": [],
            "stateMutability": "nonpayable",
            "type": "function"
        },
        {
            "inputs": [],
            "name": "getDomainSeparator",
            "outputs": [
                {
                    "internalType": "bytes32",
                    "name": "",
                    "type": "bytes32"
                }
            ],
            "stateMutability": "view",
            "type": "function"
        },
        {
            "inputs": [
                {
                    "internalType": "bytes32",
                    "name": "role",
                    "type": "bytes32"
                }
            ],
            "name": "getRoleAdmin",
            "outputs": [
                {
                    "internalType": "bytes32",
                    "name": "",
                    "type": "bytes32"
                }
            ],
            "stateMutability": "view",
            "type": "function"
        },
        {
            "inputs": [
                {
                    "internalType": "bytes32",
                    "name": "role",
                    "type": "bytes32"
                },
                {
                    "internalType": "address",
                    "name": "account",
                    "type": "address"
                }
            ],
            "name": "grantRole",
            "outputs": [],
            "stateMutability": "nonpayable",
            "type": "function"
        },
        {
            "inputs": [
                {
                    "internalType": "bytes32",
                    "name": "role",
                    "type": "bytes32"
                },
                {
                    "internalType": "address",
                    "name": "account",
                    "type": "address"
                }
            ],
            "name": "hasRole",
            "outputs": [
                {
                    "internalType": "bool",
                    "name": "",
                    "type": "bool"
                }
            ],
            "stateMutability": "view",
            "type": "function"
        },
        {
            "inputs": [
                {
                    "internalType": "bytes32",
                    "name": "role",
                    "type": "bytes32"
                },
                {
                    "internalType": "address",
                    "name": "callerConfirmation",
                    "type": "address"
                }
            ],
            "name": "renounceRole",
            "outputs": [],
            "stateMutability": "nonpayable",
            "type": "function"
        },
        {
            "inputs": [
                {
                    "internalType": "bytes32",
                    "name": "role",
                    "type": "bytes32"
                },
                {
                    "internalType": "address",
                    "name": "account",
                    "type": "address"
                }
            ],
            "name": "revokeRole",
            "outputs": [],
            "stateMutability": "nonpayable",
            "type": "function"
        },
        {
            "inputs": [
                {
                    "internalType": "bytes4",
                    "name": "interfaceId",
                    "type": "bytes4"
                }
            ],
            "name": "supportsInterface",
            "outputs": [
                {
                    "internalType": "bool",
                    "name": "",
                    "type": "bool"
                }
            ],
            "stateMutability": "view",
            "type": "function"
        },
        {
            "inputs": [
                {
                    "internalType": "address",
                    "name": "newMachineStationAddress",
                    "type": "address"
                },
                {
                    "internalType": "uint256",
                    "name": "nonce",
                    "type": "uint256"
                },
                {
                    "internalType": "bytes",
                    "name": "signature",
                    "type": "bytes"
                }
            ],
            "name": "transferMachineStationBalance",
            "outputs": [],
            "stateMutability": "nonpayable",
            "type": "function"
        },
        {
            "stateMutability": "payable",
            "type": "receive"
        },
        {
            "type": "function",
            "name": "usedNonces",
            "inputs": [
                {
                    "name": "",
                    "type": "uint256",
                    "internalType": "uint256"
                }
            ],
            "outputs": [
                {
                    "name": "",
                    "type": "bool",
                    "internalType": "bool"
                }
            ],
            "stateMutability": "view"
        },
        {
            "type": "error",
            "name": "InsufficientFactoryBalance",
            "inputs": [
                {
                    "name": "balance",
                    "type": "uint256",
                    "internalType": "uint256"
                },
                {
                    "name": "amount",
                    "type": "uint256",
                    "internalType": "uint256"
                }
            ]
        },
        {
            "inputs": [],
            "name": "InvalidMachineAddressNonceSignatureLength",
            "type": "error"
        },
        {
            "type": "error",
            "name": "MaxBatchTransactionExceeded",
            "inputs": [
                {
                    "internalType": "uint256",
                    "name": "max",
                    "type": "uint256"
                },
                {
                    "internalType": "uint256",
                    "name": "got",
                    "type": "uint256"
                }
            ]
        },
        {
            "type": "error",
            "name": "ReentrancyGuardReentrantCall",
            "inputs": []
        },
        {
            "inputs": [],
            "name": "EmptyAddressesArray",
            "type": "error"
        },
        {
            "inputs": [],
            "name": "STATION_ADMIN_ROLE",
            "outputs": [
                {
                    "internalType": "bytes32",
                    "name": "",
                    "type": "bytes32"
                }
            ],
            "stateMutability": "view",
            "type": "function"
        }
    ],
    "bytecode": "61016034610206576001600160401b039061415b601f38829003908101601f1916830190848211848310176101f2578084916040948594855283398101031261020657610057602061005084610225565b9301610225565b908051916100648361020a565b6015835260208301937f4d616368696e6553746174696f6e466163746f72790000000000000000000000855282519561009c8761020a565b6001875260208701603160f81b81526100b4866104e2565b966101209788526100c489610679565b96610140978852519020978860e05251902096610100978089524660a05285519060208201927f8b73c3c69bb8fe3d512ecc4cf759cc79239f7b179b0ffacaa9a75d522b39400f84528783015260608201524660808201523060a082015260a0815260c0810192818410908411176101f2578286525190206080523060c0526001600160a01b0390828216156101e357508216156101d2579061016961016f92610239565b506102a5565b50610178610344565b506101816103ce565b5061018a610458565b50519161392b93846107b0853960805184611982015260a05184611a3d015260c0518461194c015260e051846119d1015251836119f7015251826108040152518161082e0152f35b825163d92e233d60e01b8152600490fd5b63d92e233d60e01b8152600490fd5b634e487b7160e01b5f52604160045260245ffd5b5f80fd5b604081019081106001600160401b038211176101f257604052565b51906001600160a01b038216820361020657565b6001600160a01b03165f8181525f8051602061413b833981519152602052604090205460ff166102a0575f8181525f8051602061413b83398151915260205260408120805460ff191660011790553391905f805160206140db8339815191528180a4600190565b505f90565b6001600160a01b03165f8181527f76035acbb809d443d98cd356304e9c3bdc89a0c0e4be0928184a5c1ef404b06260205260409020547fba272f7c1126fd55bcfa14f28b454a38c350674073ade218b9dfdce40c1d0194919060ff1661033e57815f52600260205260405f20815f5260205260405f20600160ff1982541617905533915f805160206140db8339815191525f80a4600190565b50505f90565b6108005f8190525f8051602061411b8339815191526020527f0c58bca22d66ba5c758d650d700b9904541c63cffaeafdeb6d4ff64f1afb0fb5545f805160206140fb833981519152919060ff1661033e57815f52600260205260405f20815f5260205260405f20600160ff1982541617905533915f805160206140db8339815191525f80a4600190565b6108025f8190525f8051602061411b8339815191526020527fcc4802f6554f6237c6ddc2c10a328156edc2184119d1224b614c5d76c9791d82545f805160206140fb833981519152919060ff1661033e57815f52600260205260405f20815f5260205260405f20600160ff1982541617905533915f805160206140db8339815191525f80a4600190565b6108015f8190525f8051602061411b8339815191526020527f0248981f8cfa57df97379ecef40076fee0699dd8a700920975d65bc82c92d480545f805160206140fb833981519152919060ff1661033e57815f52600260205260405f20815f5260205260405f20600160ff1982541617905533915f805160206140db8339815191525f80a4600190565b8051602090818110156105585750601f82511161051a578082519201519080831061050c57501790565b825f19910360031b1b161790565b60448260405192839163305a27a960e01b83528160048401528051918291826024860152018484015e5f828201840152601f01601f19168101030190fd5b906001600160401b0382116101f2575f54926001938481811c9116801561066f575b8382101461065b57601f8111610628575b5081601f84116001146105c657509282939183925f946105bb575b50501b915f199060031b1c1916175f5560ff90565b015192505f806105a6565b919083601f1981165f8052845f20945f905b8883831061060e57505050106105f6575b505050811b015f5560ff90565b01515f1960f88460031b161c191690555f80806105e9565b8587015188559096019594850194879350908101906105d8565b5f805284601f845f20920160051c820191601f860160051c015b82811061065057505061058b565b5f8155018590610642565b634e487b7160e01b5f52602260045260245ffd5b90607f169061057a565b8051602090818110156106a35750601f82511161051a578082519201519080831061050c57501790565b9192916001600160401b0381116101f25760019182548381811c911680156107a5575b8282101461065b57601f8111610772575b5080601f83116001146107125750819293945f92610707575b50505f19600383901b1c191690821b17905560ff90565b015190505f806106f0565b90601f19831695845f52825f20925f905b88821061075b5750508385969710610743575b505050811b01905560ff90565b01515f1960f88460031b161c191690555f8080610736565b808785968294968601518155019501930190610723565b835f5283601f835f20920160051c820191601f850160051c015b82811061079a5750506106d7565b5f815501849061078c565b90607f16906106c656fe6080806040526004361015610062575b50361561003c577f3dc49a9ff525948491d546d36f1f8f4a5e8c1061519701a9ea138fe2c3cb1a435f80a1005b7fdd3c646f071b41da826ff81c94dc1b875023e92d79bc1be9595ba9e8f62e41f55f80a1005b5f905f3560e01c90816301ffc9a7146112155750806306c90d7b1461104e578063248a9ca3146110215780632f2ff15d14610fe357806336568abe14610f9b5780634159fc1514610aa7578063471e60b714610983578063490faada1461094957806371c925c31461090e57806384b0196e146107ee57806391d14854146107a4578063a1321906146105f3578063a217fddf146105d7578063d547741f14610595578063ed00dcb5146103a9578063ed24911d146103865763f38459eb0361000f57346103835761013336611418565b335f9081527fac33ff75c19e70fe83507db0d683fd3465c996598dc972688b7ace676c89077b6020908152604090912054929490939260ff1615610365576001600160a01b0316938415610353578286526003845260ff60408720541661033a57826101ea6101f092604051878101907fb754af7fdd46b6fc55b711af63d7b59453c35e3d1908dffba9481079276ce1578252896040820152846060820152606081526101df816112ef565b51902094369161149d565b83611669565b1561031d5750808452600382526040808520805460ff19166001179055516370a0823160e01b8152306004820152916108098184602481845afa9384156103125786946102df575b50815f6040518281019063a9059cbb60e01b825288602482015287604482015260448152610265816112ef565b519082855af1156102d4575f513d6102cb5750803b155b6102b357506040519283528201527fbe575ac7be9393c7e92e96432563d13256bfff696a7260480bebb40dfeecb65c60403092a380f35b60249060405190635274afe760e01b82526004820152fd5b6001141561027c565b6040513d5f823e3d90fd5b9093508181813d831161030b575b6102f78183611340565b810103126103075751925f610238565b5f80fd5b503d6102ed565b6040513d88823e3d90fd5b60449160405191633625d6bb60e01b835260048301526024820152fd5b604051632472ad4160e21b815260048101849052602490fd5b60405163d92e233d60e01b8152600490fd5b60405163e2517d3f60e01b81523360048201525f6024820152604490fd5b80fd5b503461038357806003193601126103835760206103a1611949565b604051908152f35b5034610383576080366003190112610383576103c3611268565b6001600160401b03602435818111610591576103e3903690600401611294565b90916044359060643590811161058d57610401903690600401611294565b93909461040c6115ce565b6001600160a01b038116948515610353578388526020966003885260ff60408a20541661057457846101ea61049492610446368a8961149d565b8b81519101206040518c8101917f9b32e4d070363cb19be3cb3fd56e8ded5ecf343731510315eb777279bf0bb88f83528c60408301526060820152846080820152608081526101df8161130a565b1561055657508680918482526003885260408220600160ff1982541617905560405186858237828188810182815203925af13d15610551573d6104d681611482565b906104e46040519283611340565b815287873d92013e5b15610538579061052b7fe9200e38f15edd38df305303c1b8a3ddcf792f530857fa4304c56918923688b49392604051936040855260408501916114d3565b948201528033940390a380f35b604051636515b5e360e11b815260048101859052602490fd5b6104ed565b6044908460405191633625d6bb60e01b835260048301526024820152fd5b604051632472ad4160e21b815260048101869052602490fd5b8580fd5b8380fd5b5034610383576040366003190112610383576105d36004356105b561127e565b9080845260026020526105ce6001604086200154611647565b6118d5565b5080f35b5034610383578060031936011261038357602090604051908152f35b50346103835760a03660031901126103835761060d611268565b9061061661127e565b60443592906001600160401b03906064358281116107a05761063c903690600401611294565b91909260843590811161058d57610657903690600401611294565b9290946106626115ce565b6001600160a01b03908116928315610353571693841561035357878752600360205260ff60408820541661078757876101ea6106e29260405160208101907f697034aac2a7a1f33a41731a5606341564e2b5afb05f29ad63707a05365d44108252876040820152896060820152846080820152608081526101df8161130a565b1561076957508585968652600360205260408620600160ff19825416179055813b1561058d5785809461073d604051978896879586946344f22f2160e01b8652600486015260248501526060604485015260648401916114d3565b03925af1801561075e5761074e5750f35b610757906112c1565b6103835780f35b6040513d84823e3d90fd5b6044908760405191633625d6bb60e01b835260048301526024820152fd5b604051632472ad4160e21b815260048101899052602490fd5b8480fd5b50346103835760403660031901126103835760406107c061127e565b9160043581526002602052209060018060a01b03165f52602052602060ff60405f2054166040519015158152f35b50346103835780600319360112610383576108287f0000000000000000000000000000000000000000000000000000000000000000611a63565b906108527f0000000000000000000000000000000000000000000000000000000000000000611b84565b906040519060209060208301938385106001600160401b038611176108fa5792849260206108b088966108a298604052858552604051988998600f60f81b8a5260e0858b015260e08a019061145e565b9088820360408a015261145e565b924660608801523060808801528460a088015286840360c088015251928381520193925b8281106108e357505050500390f35b8351855286955093810193928101926001016108d4565b634e487b7160e01b5f52604160045260245ffd5b503461038357806003193601126103835760206040517fba272f7c1126fd55bcfa14f28b454a38c350674073ade218b9dfdce40c1d01948152f35b503461038357806003193601126103835760206040517e3e1d629c42fadb08d65dad7500c211ed988ea4560b14fca6d4aea74d8c3a118152f35b50346103835761099236611418565b6109a09493949291926115ce565b6001600160a01b0394851692831561035357826101ea6109fe9260405160208101907fcb883d475dccf01f51b65f8b39268d178457d3fddf68741f0d23b23b9667f0898252886040820152846060820152606081526101df816112ef565b1561031d5750825260036020526040808320805460ff191660011790555190611b6180830191906001600160401b03831184841017610a9357918391604093611d958439815230602082015203019082f0918215610a865760209216807f437b0f498ec98a9c0806db0a647e9a775919e80cdaff191d79b0e1058642d3c96040519380a28152f35b50604051903d90823e3d90fd5b634e487b7160e01b85526041600452602485fd5b50346103835760e0366003190112610383576004356001600160401b038111610f9757610ad8903690600401611378565b9060249182356001600160401b038111610f9357610afa903690600401611378565b906044356001600160401b03811161059157610b1a9036906004016113e8565b608494919435906001600160401b038211610f935736602383011215610f93578160040135610b4881611361565b92610b566040519485611340565b8184526020840189819360051b83010191368311610ea4578a01905b828210610f835750505060a4356001600160401b0381116107a057610b9b903690600401611294565b9860c4356001600160401b038111610ea457610bbb9036906004016113e8565b9a9093610bc66115ce565b60018951106103535760018a5110610353576064358852600360205260ff604089205416610f6a578851868b51821491821592610f5f575b5050610f4d5788604051610c2881610c1a602082018095611530565b03601f198101835282611340565b519020908a604051610c4281610c1a602082018095611530565b51902090888d610c518a611361565b90610c5f6040519283611340565b8a8252610c6b8b611361565b601f19013660208401378a8d915b818310610f155750505060405160208101918d8360208351919301915b818110610efc5750505081610cb39103601f198101835282611340565b519020918b6040518092602082018095519091935b818110610ee3575050610ce4925003601f198101835282611340565b519020906040519260208401947f51b3bb3d1d8e49a1a756fe9ea3e5befbae72e10ed5d35ebbfff71536773944d1865260408501526060840152608083015260643560a083015260c082015260c0815260e081018181106001600160401b03821117610ed05760405251902092610d6a9160643591610d6491369161149d565b84611669565b15610eb05750506064358452600360205260408420805460ff19166001179055835b8551811015610eac57610ddb898989610deb858881610de3818f60018060a01b039a8282610dd68b8f610dce8582610dc6819d829b611565565b511693611565565b51169061170c565b611565565b511696611565565b51169461158d565b92610e0287610dfa818d611565565b51968a61158d565b90843b15610ea8578c95939192610e3487969487936040519a8b9889978896630d88b34560e31b8852600488016114f3565b03925af19182610e90575b50509060019291155f14610e8a57610e578289611565565b51167fc2de7b98267a207c216fb6cc259c457538aa3a4439c5944f1313dfda29548c9a6020604051848152a25b01610d8c565b50610e84565b610e99906112c1565b610ea457865f610e3f565b8680fd5b8c80fd5b8480f35b6044925060405191633625d6bb60e01b8352600483015260643590820152fd5b84634e487b7160e01b5f5260416004525ffd5b8451835260209485019486945090920191600101610cc8565b825184528f965060209384019390920191600101610c96565b600193945082610f2f92610f289261158d565b369161149d565b60208151910120610f408285611565565b5201908a918f8b90610c79565b60405163305641d560e01b8152600490fd5b14159050865f610bfe565b604051632472ad4160e21b815260643560048201528390fd5b8135815260209182019101610b72565b8280fd5b5080fd5b503461038357604036600319011261038357610fb561127e565b336001600160a01b03821603610fd1576105d3906004356118d5565b60405163334bd91960e11b8152600490fd5b5034610383576040366003190112610383576105d360043561100361127e565b90808452600260205261101c6001604086200154611647565b611857565b50346103835760203660031901126103835760016040602092600435815260028452200154604051908152f35b50346103075760c036600319011261030757611068611268565b61107061127e565b6001600160401b0360443581811161030757611090903690600401611294565b919060643594608435838111610307576110ae903690600401611294565b95909360a435908111610307576110c9903690600401611294565b9290966110d46115ce565b6001600160a01b03828116969087156103535784168015610353578a5f52600360205260ff60405f2054166111fc576101ea61116d928c92611117368d8c61149d565b602081519101206040519060208201927f90e38a06e0fbef4f398e1c2f195324b0a08b93b67ac0ff9ed53bb4ec857d475d84528d6040840152606083015260808201528460a082015260a081526101df816112d4565b156111de57508161119491895f52600360205260405f20600160ff1982541617905561170c565b833b15610307576111c05f96928793604051998a9889978896630d88b34560e31b8852600488016114f3565b03925af180156102d4576111d2575080f35b6111dc91506112c1565b005b6044908960405191633625d6bb60e01b835260048301526024820152fd5b604051632472ad4160e21b8152600481018c9052602490fd5b34610307576020366003190112610307576004359063ffffffff60e01b821680920361030757602091637965db0b60e01b8114908115611257575b5015158152f35b6301ffc9a760e01b14905083611250565b600435906001600160a01b038216820361030757565b602435906001600160a01b038216820361030757565b9181601f84011215610307578235916001600160401b038311610307576020838186019501011161030757565b6001600160401b0381116108fa57604052565b60c081019081106001600160401b038211176108fa57604052565b608081019081106001600160401b038211176108fa57604052565b60a081019081106001600160401b038211176108fa57604052565b604081019081106001600160401b038211176108fa57604052565b90601f801991011681019081106001600160401b038211176108fa57604052565b6001600160401b0381116108fa5760051b60200190565b9080601f8301121561030757602090823561139281611361565b936113a06040519586611340565b81855260208086019260051b82010192831161030757602001905b8282106113c9575050505090565b81356001600160a01b03811681036103075781529083019083016113bb565b9181601f84011215610307578235916001600160401b038311610307576020808501948460051b01011161030757565b6060600319820112610307576004356001600160a01b0381168103610307579160243591604435906001600160401b0382116103075761145a91600401611294565b9091565b805180835260209291819084018484015e5f828201840152601f01601f1916010190565b6001600160401b0381116108fa57601f01601f191660200190565b9291926114a982611482565b916114b76040519384611340565b829481845281830111610307578281602093845f960137010152565b908060209392818452848401375f828201840152601f01601f1916010190565b9161152d9694959361151a9260018060a01b031684526080602085015260808401916114d3565b93604082015260608185039101526114d3565b90565b80516020809201915f5b828110611548575050505090565b83516001600160a01b03168552938101939281019260010161153a565b80518210156115795760209160051b010190565b634e487b7160e01b5f52603260045260245ffd5b91908110156115795760051b81013590601e19813603018212156103075701908135916001600160401b038311610307576020018236038113610307579190565b335f9081527f76035acbb809d443d98cd356304e9c3bdc89a0c0e4be0928184a5c1ef404b06260205260409020547fba272f7c1126fd55bcfa14f28b454a38c350674073ade218b9dfdce40c1d01949060ff16156116295750565b6044906040519063e2517d3f60e01b82523360048301526024820152fd5b805f52600260205260405f20335f5260205260ff60405f205416156116295750565b9091805f52600360205260ff60405f2054166116f457506116b89160426116af92611692611949565b906040519161190160f01b83526002830152602282015220611c55565b90929192611c8f565b6001600160a01b03165f9081527fac33ff75c19e70fe83507db0d683fd3465c996598dc972688b7ace676c89077b602052604090205460ff1690565b60249060405190632472ad4160e21b82526004820152fd5b6001600160a01b039182165f9081527fb0372863f3131c26cb877e6c1d89377aebbe992c7ae29dd20226c8cbcb6a05ba6020908152604091829020549293919290919060ff1661175d575b50505050565b82516370a0823160e01b8152931660048401819052610809938281602481885afa801561184d575f90611818575b670494654067e10000915011611757575f9083518381019163a9059cbb60e01b83526024820152670de0b6b3a76400006044820152604481526117cd816112ef565b519082865af11561180f575f513d6118065750813b155b6117ef578080611757565b602492505190635274afe760e01b82526004820152fd5b600114156117e4565b513d5f823e3d90fd5b508281813d8311611846575b61182e8183611340565b8101031261030757670494654067e10000905161178b565b503d611824565b84513d5f823e3d90fd5b90815f52600260205260405f209060018060a01b031690815f5260205260ff60405f205416155f146118cf57815f52600260205260405f20815f5260205260405f20600160ff1982541617905533917f2f8788117e7eff1d82e926ec794901d17c78024a50270940304540a733656f0d5f80a4600190565b50505f90565b90815f52600260205260405f209060018060a01b031690815f5260205260ff60405f2054165f146118cf57815f52600260205260405f20815f5260205260405f2060ff19815416905533917ff6391f5c32d9c69d2a47ea670b442974b53935d1edc7fd64eb21e047a839171b5f80a4600190565b307f00000000000000000000000000000000000000000000000000000000000000006001600160a01b03161480611a3a575b156119a4577f000000000000000000000000000000000000000000000000000000000000000090565b60405160208101907f8b73c3c69bb8fe3d512ecc4cf759cc79239f7b179b0ffacaa9a75d522b39400f82527f000000000000000000000000000000000000000000000000000000000000000060408201527f000000000000000000000000000000000000000000000000000000000000000060608201524660808201523060a082015260a08152611a34816112d4565b51902090565b507f0000000000000000000000000000000000000000000000000000000000000000461461197b565b60ff8114611aa15760ff811690601f8211611a8f5760405191611a8583611325565b8252602082015290565b604051632cd44ac360e21b8152600490fd5b506040515f8054906001908260011c60018416928315611b7a575b6020948583108514611b66578287528694908115611b465750600114611aeb575b505061152d92500382611340565b5f8080527f290decd9548b62a8d60345a988386fc84ba6bc95484008f6362f93160ef3e56395935091905b818310611b2e57505061152d93508201015f80611add565b85548784018501529485019486945091830191611b16565b91505061152d94925060ff191682840152151560051b8201015f80611add565b634e487b7160e01b5f52602260045260245ffd5b90607f1690611abc565b60ff8114611ba65760ff811690601f8211611a8f5760405191611a8583611325565b506040515f60018054918260011c60018416928315611c4b575b6020948583108514611b66578287528694908115611b465750600114611bee57505061152d92500382611340565b9093915060015f527fb10e2d527612073b26eecdfd717e6a320cf44b4afac2b0732d9fcbe2b7fa0cf6935f915b818310611c3357505061152d93508201015f80611add565b85548784018501529485019486945091830191611c1b565b90607f1690611bc0565b8151919060418303611c8557611c7e9250602082015190606060408401519301515f1a90611d12565b9192909190565b50505f9160029190565b6004811015611cfe5780611ca1575050565b60018103611cbb5760405163f645eedf60e01b8152600490fd5b60028103611cdc5760405163fce698f760e01b815260048101839052602490fd5b600314611ce65750565b602490604051906335e2f38360e21b82526004820152fd5b634e487b7160e01b5f52602160045260245ffd5b91907f7fffffffffffffffffffffffffffffff5d576e7357a4501ddfe92f46681b20a08411611d89579160209360809260ff5f9560405194855216868401526040830152606082015282805260015afa156102d4575f516001600160a01b03811615611d7f57905f905f90565b505f906001905f90565b5050505f916003919056fe610160346101fe576001600160401b03611b61601f38829003908101601f1916840190838211858310176101ea57808591604094859485528339810103126101fe57610056602061004f8561021d565b940161021d565b9080519161006383610202565b6013835260208301937f4d616368696e65536d6172744163636f756e7400000000000000000000000000855282519561009b87610202565b6001875260208701603160f81b81526100b38661033c565b966101209788526100c3896104d3565b96610140978852519020978860e05251902096610100978089524660a05285519060208201927f8b73c3c69bb8fe3d512ecc4cf759cc79239f7b179b0ffacaa9a75d522b39400f84528783015260608201524660808201523060a082015260a0815260c0810193818510908511176101ea578386525190206080523060c0526001600160a01b039081169182156101db57508216156101ca57600380546001600160a01b03191690911790556101829061017c81610231565b5061029d565b505191611517938461060a8539608051846110bc015260a05184611187015260c05184611086015260e0518461110b015251836111310152518261020b015251816102340152f35b825163d92e233d60e01b8152600490fd5b63d92e233d60e01b8152600490fd5b634e487b7160e01b5f52604160045260245ffd5b5f80fd5b604081019081106001600160401b038211176101ea57604052565b51906001600160a01b03821682036101fe57565b6001600160a01b03165f8181525f80516020611b41833981519152602052604090205460ff16610298575f8181525f80516020611b4183398151915260205260408120805460ff191660011790553391905f80516020611b218339815191528180a4600190565b505f90565b6001600160a01b03165f8181527f0dfe31f0f6ba2f376d652c4fcbf86cea8151cd1b116a8105a365add2a554ee8160205260409020547f71d98c4c57ac41ab6c267d775dd524f57f99d0415ec2bcc47d70d31c0efd17b1919060ff1661033657815f52600260205260405f20815f5260205260405f20600160ff1982541617905533915f80516020611b218339815191525f80a4600190565b50505f90565b8051602090818110156103b25750601f825111610374578082519201519080831061036657501790565b825f19910360031b1b161790565b60448260405192839163305a27a960e01b83528160048401528051918291826024860152018484015e5f828201840152601f01601f19168101030190fd5b906001600160401b0382116101ea575f54926001938481811c911680156104c9575b838210146104b557601f8111610482575b5081601f841160011461042057509282939183925f94610415575b50501b915f199060031b1c1916175f5560ff90565b015192505f80610400565b919083601f1981165f8052845f20945f905b888383106104685750505010610450575b505050811b015f5560ff90565b01515f1960f88460031b161c191690555f8080610443565b858701518855909601959485019487935090810190610432565b5f805284601f845f20920160051c820191601f860160051c015b8281106104aa5750506103e5565b5f815501859061049c565b634e487b7160e01b5f52602260045260245ffd5b90607f16906103d4565b8051602090818110156104fd5750601f825111610374578082519201519080831061036657501790565b9192916001600160401b0381116101ea5760019182548381811c911680156105ff575b828210146104b557601f81116105cc575b5080601f831160011461056c5750819293945f92610561575b50505f19600383901b1c191690821b17905560ff90565b015190505f8061054a565b90601f19831695845f52825f20925f905b8882106105b5575050838596971061059d575b505050811b01905560ff90565b01515f1960f88460031b161c191690555f8080610590565b80878596829496860151815501950193019061057d565b835f5283601f835f20920160051c820191601f850160051c015b8281106105f4575050610531565b5f81550184906105e6565b90607f169061052056fe6080806040526004361015610012575f80fd5b5f3560e01c90816301ffc9a714610c9457508063248a9ca314610c675780632f2ff15d14610c2a57806336568abe14610be357806344f22f211461095b578063636cbe46146108ff5780636717e41c146108d05780636c459a28146106d75780637b063e8f1461031057806384b0196e146101f65780638da5cb5b146101ce57806391d1485414610185578063a217fddf1461016b578063d547741f1461012c578063ed24911d1461010a5763fb6a9dec146100cc575f80fd5b34610106575f3660031901126101065760206040517f71d98c4c57ac41ab6c267d775dd524f57f99d0415ec2bcc47d70d31c0efd17b18152f35b5f80fd5b34610106575f366003190112610106576020610124611083565b604051908152f35b346101065760403660031901126101065761016960043561014b610ce7565b90805f526002602052610164600160405f200154610f51565b61100f565b005b34610106575f3660031901126101065760206040515f8152f35b346101065760403660031901126101065761019e610ce7565b6004355f52600260205260405f209060018060a01b03165f52602052602060ff60405f2054166040519015158152f35b34610106575f366003190112610106576003546040516001600160a01b039091168152602090f35b34610106575f3660031901126101065761022f7f000000000000000000000000000000000000000000000000000000000000000061126a565b6102587f000000000000000000000000000000000000000000000000000000000000000061138e565b6040516020808201928284106001600160401b038511176102fc579160206102b185946102a397966040525f8452604051978897600f60f81b895260e0858a015260e0890190610e1a565b908782036040890152610e1a565b914660608701523060808701525f60a087015285830360c087015251918281520192915f5b8281106102e557505050500390f35b8351855286955093810193928101926001016102d6565b634e487b7160e01b5f52604160045260245ffd5b34610106576080366003190112610106576004356001600160401b0380821161010657366023830112156101065781600401359161034d83610e03565b9061035b6040519283610d91565b83825260208201906024829560051b8201019036821161010657602401915b8183106106b75750505060243592828411610106573660238501121561010657836004013592808411610106573660248560051b8701011161010657606435908111610106576103ce903690600401610d13565b335f9081527f0dfe31f0f6ba2f376d652c4fcbf86cea8151cd1b116a8105a365add2a554ee8160205260409020549192909160ff1615806106a2575b61068a576044355f52600460205260ff60405f2054166106705761042d85610e03565b61043a6040519182610d91565b85815261044686610e03565b6020820190601f1901368237865f5b8982821061063c57505050604051908160208101918294519290925f5b81811061062357505061048e925003601f198101835282610d91565b5190209060405160208101918287519091905f5b8181106106045750505091816104c961052d9695936105279503601f198101835282610d91565b519020906040519060208201927fb5a77f2236108db8ee3721e29cb2de5c7ac280c84df715e06f3faf11ba2bf72384526040830152606082015260443560808201526080815261051881610d5b565b51902093604435923691610dcd565b83610e3e565b156105e557506044355f52600460205260405f20916001938493600160ff198254161790555f935b61055b57005b825184101561016957849384905f806001600160a01b0361057c8489610ee8565b51168161058d858960248a01610f10565b9190826040519384928337810182815203925af16105a9610eb9565b5060405190828252151560208201527f55fbc4af9054883bbf9a45d08a8bcac93017032109539cfe6bebe9180238cce760403092a20193610555565b60449060405190633b66eae960e21b8252600482015281356024820152fd5b82516001600160a01b03168452602093840193909201916001016104a2565b8451835260209485019486945090920191600101610472565b61064f8260019460246106569401610f10565b3691610dcd565b602081519101206106678286610ee8565b52018790610455565b604051632472ad4160e21b81526044356004820152602490fd5b604051634a0bfec160e01b8152336004820152602490fd5b506003546001600160a01b031633141561040a565b82356001600160a01b03811681036101065781526020928301920161037a565b34610106576080366003190112610106576106f0610cfd565b6001600160401b0360243581811161010657610710903690600401610d13565b604493919335926064359081116101065761072f903690600401610d13565b335f9081527f0dfe31f0f6ba2f376d652c4fcbf86cea8151cd1b116a8105a365add2a554ee81602090815260409091205490969295919060ff1615806108bb575b61068a57815f526004875260ff60405f2054166108a2576107fd82610527610799368888610dcd565b8a8151910120986040518b8101907f1ff1e0e2a8ecfc4e51458a32b21d4053e7cc8220f6b9c2e72223c2169d70df88825260018060a01b038b169b8c60408301526060820152846080820152608081526107f281610d5b565b519020943691610dcd565b156108855750915f809492819482526004885260408220600160ff19825416179055826040519384928337810182815203925af1610839610eb9565b501561086d576040519081527fb8a1f97c3aadecf502b8d6cfb8ef2741544cb95b7dfc786e004f532db2752c2430923392a3005b60249060405190636515b5e360e11b82526004820152fd5b60449160405191633b66eae960e21b835260048301526024820152fd5b604051632472ad4160e21b815260048101839052602490fd5b506003546001600160a01b0316331415610770565b34610106576020366003190112610106576004355f526004602052602060ff60405f2054166040519015158152f35b34610106576060366003190112610106576024356001600160401b0381116101065736602382011215610106576109516109456020923690602481600401359101610dcd565b60443590600435610e3e565b6040519015158152f35b3461010657606036600319011261010657610974610cfd565b602480356044356001600160401b03811161010657610997903690600401610d13565b335f9081527f0dfe31f0f6ba2f376d652c4fcbf86cea8151cd1b116a8105a365add2a554ee816020908152604090912054929590927f71d98c4c57ac41ab6c267d775dd524f57f99d0415ec2bcc47d70d31c0efd17b19060ff1615610bc657506001600160a01b0316948515610bb457835f526004835260ff60405f205416610b9c5783610527610a6592604051868101907f60ae25e845e8a72489f31d7ae79be37e761d197498dd68de7f7c02dfe585a08e82528a6040820152846060820152606081526107f281610d40565b15610b7f5750815f526004815260405f20600160ff19825416179055604051926370a0823160e01b845230600485015261080982858381845afa948515610b45575f95610b50575b50825f6040518281019063a9059cbb60e01b8252898682015288604482015260448152610ad981610d40565b519082855af115610b45575f513d610b3c5750803b155b610b275750506040519283528201527fe4506670db3a18facacc640ffa234ff9a722f01542a25fd235ffa83b394ee71360403092a3005b60405190635274afe760e01b82526004820152fd5b60011415610af0565b6040513d5f823e3d90fd5b9094508281813d8311610b78575b610b688183610d91565b8101031261010657519386610aad565b503d610b5e565b604490838560405192633b66eae960e21b84526004840152820152fd5b50505060405190632472ad4160e21b82526004820152fd5b60405163d92e233d60e01b8152600490fd5b856044916040519163e2517d3f60e01b8352336004840152820152fd5b3461010657604036600319011261010657610bfc610ce7565b336001600160a01b03821603610c18576101699060043561100f565b60405163334bd91960e11b8152600490fd5b3461010657604036600319011261010657610169600435610c49610ce7565b90805f526002602052610c62600160405f200154610f51565b610f91565b34610106576020366003190112610106576004355f5260026020526020600160405f200154604051908152f35b34610106576020366003190112610106576004359063ffffffff60e01b821680920361010657602091637965db0b60e01b8114908115610cd6575b5015158152f35b6301ffc9a760e01b14905083610ccf565b602435906001600160a01b038216820361010657565b600435906001600160a01b038216820361010657565b9181601f84011215610106578235916001600160401b038311610106576020838186019501011161010657565b608081019081106001600160401b038211176102fc57604052565b60a081019081106001600160401b038211176102fc57604052565b604081019081106001600160401b038211176102fc57604052565b90601f801991011681019081106001600160401b038211176102fc57604052565b6001600160401b0381116102fc57601f01601f191660200190565b929192610dd982610db2565b91610de76040519384610d91565b829481845281830111610106578281602093845f960137010152565b6001600160401b0381116102fc5760051b60200190565b805180835260209291819084018484015e5f828201840152601f01601f1916010190565b9091805f52600460205260ff60405f205416610ea15750610e8d916042610e8492610e67611083565b906040519161190160f01b835260028301526022820152206111ad565b909291926111e7565b6003546001600160a01b0391821691161490565b60249060405190632472ad4160e21b82526004820152fd5b3d15610ee3573d90610eca82610db2565b91610ed86040519384610d91565b82523d5f602084013e565b606090565b8051821015610efc5760209160051b010190565b634e487b7160e01b5f52603260045260245ffd5b9190811015610efc5760051b81013590601e19813603018212156101065701908135916001600160401b038311610106576020018236038113610106579190565b805f52600260205260405f20335f5260205260ff60405f20541615610f735750565b6044906040519063e2517d3f60e01b82523360048301526024820152fd5b90815f52600260205260405f209060018060a01b031690815f5260205260ff60405f205416155f1461100957815f52600260205260405f20815f5260205260405f20600160ff1982541617905533917f2f8788117e7eff1d82e926ec794901d17c78024a50270940304540a733656f0d5f80a4600190565b50505f90565b90815f52600260205260405f209060018060a01b031690815f5260205260ff60405f2054165f1461100957815f52600260205260405f20815f5260205260405f2060ff19815416905533917ff6391f5c32d9c69d2a47ea670b442974b53935d1edc7fd64eb21e047a839171b5f80a4600190565b307f00000000000000000000000000000000000000000000000000000000000000006001600160a01b03161480611184575b156110de577f000000000000000000000000000000000000000000000000000000000000000090565b60405160208101907f8b73c3c69bb8fe3d512ecc4cf759cc79239f7b179b0ffacaa9a75d522b39400f82527f000000000000000000000000000000000000000000000000000000000000000060408201527f000000000000000000000000000000000000000000000000000000000000000060608201524660808201523060a082015260a0815260c081018181106001600160401b038211176102fc5760405251902090565b507f000000000000000000000000000000000000000000000000000000000000000046146110b5565b81519190604183036111dd576111d69250602082015190606060408401519301515f1a9061145f565b9192909190565b50505f9160029190565b600481101561125657806111f9575050565b600181036112135760405163f645eedf60e01b8152600490fd5b600281036112345760405163fce698f760e01b815260048101839052602490fd5b60031461123e5750565b602490604051906335e2f38360e21b82526004820152fd5b634e487b7160e01b5f52602160045260245ffd5b60ff81146112a85760ff811690601f8211611296576040519161128c83610d76565b8252602082015290565b604051632cd44ac360e21b8152600490fd5b506040515f8054906001908260011c60018416928315611384575b602094858310851461137057828752869490811561135057506001146112f5575b50506112f292500382610d91565b90565b5f8080527f290decd9548b62a8d60345a988386fc84ba6bc95484008f6362f93160ef3e56395935091905b8183106113385750506112f293508201015f806112e4565b85548784018501529485019486945091830191611320565b9150506112f294925060ff191682840152151560051b8201015f806112e4565b634e487b7160e01b5f52602260045260245ffd5b90607f16906112c3565b60ff81146113b05760ff811690601f8211611296576040519161128c83610d76565b506040515f60018054918260011c60018416928315611455575b602094858310851461137057828752869490811561135057506001146113f85750506112f292500382610d91565b9093915060015f527fb10e2d527612073b26eecdfd717e6a320cf44b4afac2b0732d9fcbe2b7fa0cf6935f915b81831061143d5750506112f293508201015f806112e4565b85548784018501529485019486945091830191611425565b90607f16906113ca565b91907f7fffffffffffffffffffffffffffffff5d576e7357a4501ddfe92f46681b20a084116114d6579160209360809260ff5f9560405194855216868401526040830152606082015282805260015afa15610b45575f516001600160a01b038116156114cc57905f905f90565b505f906001905f90565b5050505f916003919056fea264697066735822122040fdb08d6f0db777836b24c164dfa98d1e768fcf8c9fc664d8d1ced1fd34efe364736f6c634300081900332f8788117e7eff1d82e926ec794901d17c78024a50270940304540a733656f0dac33ff75c19e70fe83507db0d683fd3465c996598dc972688b7ace676c89077ba2646970667358221220b512494a60273787a52618377aa6ffd601b24b131014dfcb5b9d408afcc0efb064736f6c634300081900332f8788117e7eff1d82e926ec794901d17c78024a50270940304540a733656f0d003e1d629c42fadb08d65dad7500c211ed988ea4560b14fca6d4aea74d8c3a11b0372863f3131c26cb877e6c1d89377aebbe992c7ae29dd20226c8cbcb6a05baac33ff75c19e70fe83507db0d683fd3465c996598dc972688b7ace676c89077b",
    "sourcePath": "/Users/iredia/source/js/peaq-evm-smart-contracts/src/machine-station/agung/MachineStationFactory.sol",
    "compiler": {
        "name": "solc",
        "version": "0.8.25+commit.b61c2a91"
    },
    "functionHashes": {
        "DEFAULT_ADMIN_ROLE()": "a217fddf",
        "REQUIRED_STORAGE_DEPOSIT_FEE_ROLE()": "490faada",
        "STATION_MANAGER_ROLE()": "71c925c3",
        "deployMachineSmartAccount(address,uint256,bytes)": "471e60b7",
        "eip712Domain()": "84b0196e",
        "executeMachineBatchTransactions(address[],address[],bytes[],uint256,uint256[],bytes,bytes[])": "4159fc15",
        "executeMachineTransaction(address,address,bytes,uint256,bytes,bytes)": "06c90d7b",
        "executeMachineTransferBalance(address,address,uint256,bytes,bytes)": "a1321906",
        "executeTransaction(address,bytes,uint256,bytes)": "ed00dcb5",
        "getDomainSeparator()": "ed24911d",
        "getRoleAdmin(bytes32)": "248a9ca3",
        "grantRole(bytes32,address)": "2f2ff15d",
        "hasRole(bytes32,address)": "91d14854",
        "renounceRole(bytes32,address)": "36568abe",
        "revokeRole(bytes32,address)": "d547741f",
        "supportsInterface(bytes4)": "01ffc9a7",
        "transferMachineStationBalance(address,uint256,bytes)": "f38459eb"
    },
    "gasEstimates": {
        "creation": {
            "codeDepositCost": "2927000",
            "executionCost": "infinite",
            "totalCost": "infinite"
        },
        "external": {
            "": "1218",
            "DEFAULT_ADMIN_ROLE()": "428",
            "REQUIRED_STORAGE_DEPOSIT_FEE_ROLE()": "315",
            "STATION_MANAGER_ROLE()": "337",
            "deployMachineSmartAccount(address,uint256,bytes)": "infinite",
            "eip712Domain()": "infinite",
            "executeMachineBatchTransactions(address[],address[],bytes[],uint256,uint256[],bytes,bytes[])": "infinite",
            "executeMachineTransaction(address,address,bytes,uint256,bytes,bytes)": "infinite",
            "executeMachineTransferBalance(address,address,uint256,bytes,bytes)": "infinite",
            "executeTransaction(address,bytes,uint256,bytes)": "infinite",
            "getDomainSeparator()": "infinite",
            "getRoleAdmin(bytes32)": "2380",
            "grantRole(bytes32,address)": "33277",
            "hasRole(bytes32,address)": "2714",
            "renounceRole(bytes32,address)": "28885",
            "revokeRole(bytes32,address)": "33488",
            "supportsInterface(bytes4)": "275",
            "transferMachineStationBalance(address,uint256,bytes)": "infinite"
        },
        "internal": {
            "_fundStorageDepositFees(address,address)": "infinite",
            "_hashData(bytes calldata[] calldata)": "infinite",
            "_verifySignature(bytes32,bytes memory,uint256)": "infinite"
        }
    }
}